:020000040800F2
:10000000000002202D4300080D3E00081B3E0008A2
:10001000213E0008273E00082D3E00080000000099
:10002000000000000000000000000000B12B0008EC
:10003000333E000800000000F12D0008413E00089A
:100040007D4300087D4300087D4300087D43000890
:100050007D4300087D4300087D4300087D43000880
:100060007D4300087D4300087D4300087D43000870
:100070007D4300087D4300087D4300087D43000860
:100080007D4300087D4300087D4300087D43000850
:100090007D4300087D4300087D4300087D43000840
:1000A0007D4300087D4300087D4300087D43000830
:1000B0007D4300087D4300087D4300087D43000820
:1000C0007D4300087D4300087D4300087D43000810
:1000D0007D430008513E00087D4300087D43000831
:1000E0007D4300087D4300087D4300087D430008F0
:1000F0007D4300087D4300087D4300087D430008E0
:100100007D4300087D4300087D4300087D430008CF
:100110007D4300087D4300087D4300087D430008BF
:100120007D4300087D430008793E00087D430008B8
:100130007D4300087D4300087D4300087D4300089F
:100140007D4300087D4300087D4300087D4300088F
:100150007D4300087D4300088D3E00087D43000874
:100160007D4300087D4300087D4300087D4300086F
:100170007D4300087D4300087D4300080000000027
:080180007D4300087D430008E7
:1001900010B5054C237833B9044B13B10448AFF3C1
:1001A00000800123237010BD3000002000000000FB
:1001B000D843000808B5034B1BB103490348AFF30C
:1001C000008008BD0000000034000020D843000873
:1001D00053B94AB9002908BF00281CBF4FF0FF31AE
:1001E0004FF0FF3000F07AB9ADF1080C6DE904CEA4
:1001F00000F006F8DDF804E0DDE9022304B0704702
:100200002DE9F0478C460D460446089E002B51D13F
:100210008A4217466DD9B2FA82FEBEF1000F0BD0AA
:10022000CEF1200C01FA0EF520FA0CFC02FA0EF7C2
:100230004CEA050C00FA0EF44FEA174A250CBCFBF9
:10024000FAF81FFA87F90AFB18CC45EA0C4508FBB7
:1002500009F3AB420AD9ED1908F1FF3280F023818E
:10026000AB4240F22081A8F102083D44ED1AA4B24D
:10027000B5FBFAF00AFB105544EA054400FB09F906
:10028000A14509D9E41900F1FF3380F00A81A145A5
:1002900040F2078102383C44A4EB090440EA0840DC
:1002A0000021002E61D024FA0EF400233460736024
:1002B000BDE8F0878B4207D9002E54D0002186E894
:1002C00021000846BDE8F087B3FA83F1002940F029
:1002D0008E80AB4202D3824200F2FA80841A65EB30
:1002E00003050120AC46002E3FD086E81010BDE883
:1002F000F08712B90127B7FBF2F7B7FA87FEBEF114
:10030000000F34D1EB1B3A0C1FFA87FC0121B3FB21
:10031000F2F8250C02FB183345EA03450CFB08F301
:10032000AB4207D9ED1908F1FF3002D2AB4200F21F
:10033000D1808046ED1AA3B2B5FBF2F002FB105556
:1003400043EA05440CFB00FCA44507D9E41900F17D
:10035000FF3302D2A44500F2B8801846A4EB0C0487
:1003600040EA08409DE731463046BDE8F087CEF1CF
:10037000200405FA0EF307FA0EF720FA04F83A0CF7
:1003800025FA04F448EA0308B4FBF2F14FEA1845F1
:1003900002FB11441FFA87FC45EA044501FB0CF3FC
:1003A000AB4200FA0EF409D9ED1901F1FF3080F0EB
:1003B0008A80AB4240F2878002393D44EB1A1FFA33
:1003C00088F5B3FBF2F002FB103345EA034500FB6E
:1003D0000CF3AB4207D9ED1900F1FF386FD2AB42F5
:1003E0006DD902383D44EB1A40EA01418FE7C1F173
:1003F000200722FA07F88B4005FA01F448EA0303C4
:1004000020FA07FE4FEA134CFD404EEA040EB5FBFE
:10041000FCF94FEA1E440CFB19551FFA83F844EA15
:10042000054509FB08F4AC4202FA01F200FA01FAB0
:1004300008D9ED1809F1FF3043D2AC4241D9A9F1F6
:1004400002091D442D1B1FFA8EFEB5FBFCF00CFBB0
:1004500010554EEA054400FB08F8A04507D9E418FA
:1004600000F1FF3529D2A04527D902381C4440EAC3
:100470000940A4EB0804A0FB02894C45C6464D4642
:1004800015D312D056B1BAEB0E0364EB050404FA8F
:1004900007F7CB401F43CC40376074600021BDE8B4
:1004A000F0871846F8E69046E0E6C245EAD2B8EB97
:1004B000020E69EB03050138E4E72846D7E740461A
:1004C00091E78146BEE7014678E702383C4445E7BC
:1004D000084608E7A8F102083D442BE7704700BF33
:1004E00080B500AF0E4A0E4B1B6843F400731360D7
:1004F0000B4A0B4B1B6843F480631360084A084B9C
:100500001B6843F480731360032000F029F90F2067
:1005100000F008F803F04EFC0023184680BD00BF31
:10052000003C024080B582B000AF7860124B1A6880
:10053000124B1B7819464FF47A73B3FBF1F3B2FBFD
:10054000F3F3184600F041F90346002B01D00123D4
:100550000EE07B680F2B0AD8002279684FF0FF303D
:1005600000F009F9064A7B681360002300E00123CC
:1005700018460837BD4680BD20000020040000203A
:100580000000002080B400AF064B1B781A46064BD3
:100590001B681344044A136000BFBD465DF8047B2A
:1005A000704700BF04000020983D002080B400AFD9
:1005B000034B1B681846BD465DF8047B704700BFBF
:1005C000983D002080B485B000AF78607B6803F070
:1005D0000703FB600C4BDB68BB60BA684FF6FF0398
:1005E0001340BB60FB681A02BB68134343F0BF6350
:1005F00043F40033BB60044ABB68D36000BF1437C8
:10060000BD465DF8047B704700ED00E080B400AFAC
:10061000044BDB681B0A03F007031846BD465DF870
:10062000047B704700ED00E080B483B000AF034668
:10063000FB7197F90730002B0BDB094997F907305D
:100640005B09FA7902F01F02012000FA02F241F878
:10065000232000BF0C37BD465DF8047B704700BF08
:1006600000E100E080B483B000AF03463960FB7165
:1006700097F90730002B0ADB0D4997F907303A68E4
:10068000D2B21201D2B20B4483F800230AE0094926
:10069000FB7903F00F03043B3A68D2B21201D2B2E5
:1006A0000B441A7600BF0C37BD465DF8047B7047DB
:1006B00000E100E000ED00E080B489B000AFF86038
:1006C000B9607A60FB6803F00703FB61FB69C3F163
:1006D0000703042B28BF0423BB61FB690433062BEB
:1006E00002D9FB69033B00E000237B610122BB6967
:1006F00002FA03F35A1EBB681A407B699A40012133
:100700007B6901FA03F3591E7B680B4013431846BB
:100710002437BD465DF8047B7047000080B582B089
:1007200000AF78607B68013BB3F1807F01D3012388
:100730000FE00A4A7B68013B53600F214FF0FF3006
:10074000FFF790FF054B00229A60044B07221A60C6
:10075000002318460837BD4680BD00BF10E000E00A
:1007600080B582B000AF78607868FFF72BFF00BFDC
:100770000837BD4680BD80B586B000AF0346B9607E
:100780007A60FB7300237B61FFF740FF78617A6832
:10079000B9687869FFF790FF024697F90F30114664
:1007A0001846FFF75FFF00BF1837BD4680BD80B514
:1007B00082B000AF0346FB7197F907301846FFF788
:1007C00033FF00BF0837BD4680BD80B582B000AFA3
:1007D00078607868FFF7A2FF034618460837BD46E1
:1007E00080BD000080B586B000AF786000237B61DB
:1007F000FFF7DCFE38617B68002B01D1012399E013
:100800007B68002283F834207B68022283F835203D
:100810007B681B687A681268126822F001021A600D
:100820000FE0FFF7C3FE02463B69D31A052B08D938
:100830007B6820225A657B68032283F835200323D6
:1008400078E07B681B681B6803F00103002BE8D18C
:100850007B681B681B687B617A69384B13407B613E
:100860007B685A687B689B681A437B68DB681A431D
:100870007B681B691A437B685B691A437B689B69C9
:100880001A437B68DB691A437B681B6A13437A69E6
:1008900013437B617B685B6A042B07D17B68DA6A50
:1008A0007B681B6B13437A6913437B617B681B680E
:1008B0007A691A607B681B685B697B617B6923F0DE
:1008C00007037B617B685B6A7A6913437B617B68A2
:1008D0005B6A042B17D17B689B6A7A6913437B613F
:1008E0007B68DB6A002B0ED0786800F009FB0346BA
:1008F000002B08D07B6840225A657B68012283F870
:100900003520012316E07B681B687A695A61786894
:1009100000F0C0FA0346FB607B68DB6D3F229A4023
:10092000FB689A607B6800225A657B68012283F825
:100930003520002318461837BD4680BD3F8010F093
:1009400080B586B000AFF860B9607A603B60002384
:10095000FB75FB689B6D3B61FB6893F83430012BA2
:1009600001D1022348E0FB68012283F83420FB68B0
:1009700093F83530DBB2012B37D1FB68022283F8C4
:100980003520FB6800225A653B687A68B968F868C8
:1009900000F052FAFB68DB6D3F229A403B699A6097
:1009A000FB681B68FA681268126842F016021A6047
:1009B000FB681B68FA681268526942F080025A614B
:1009C000FB681B6C002B07D0FB681B68FA68126879
:1009D000126842F008021A60FB681B68FA68126825
:1009E000126842F001021A6005E0FB68002283F8F9
:1009F00034200223FB75FB7D18461837BD4680BDA9
:100A000080B584B000AF78607B689B6DFB60FFF7BA
:100A1000CDFDB8607B6893F83530DBB2022B08D08F
:100A20007B6880225A657B68002283F8342001238A
:100A300052E07B681B687A681268126822F016021E
:100A40001A607B681B687A681268526922F080021B
:100A50005A617B681B6C002B03D17B689B6C002B5D
:100A600007D07B681B687A681268126822F0080257
:100A70001A607B681B687A681268126822F00102AB
:100A80001A6013E0FFF792FD0246BB68D31A052BEC
:100A90000CD97B6820225A657B68002283F83420B9
:100AA0007B68032283F83520032315E07B681B68ED
:100AB0001B6803F00103002BE4D17B68DB6D3F2250
:100AC0009A40FB689A607B68002283F834207B6838
:100AD000012283F83520002318461037BD4680BD1B
:100AE00080B483B000AF78607B6893F83530DBB2B8
:100AF000022B04D07B6880225A6501230CE07B68BE
:100B0000052283F835207B681B687A6812681268B2
:100B100022F001021A60002318460C37BD465DF82A
:100B2000047B704780B586B000AF78600023BB605F
:100B3000924B1B68924AA2FB03239B0A7B617B6852
:100B40009B6D3B613B691B68FB607B68DB6D08222A
:100B50009A40FB681340002B1AD07B681B681B6807
:100B600003F00403002B13D07B681B687A681268BB
:100B7000126822F004021A607B68DB6D08229A403A
:100B80003B699A607B685B6D43F001027B685A6544
:100B90007B68DB6D01229A40FB681340002B12D06A
:100BA0007B681B685B6903F08003002B0BD07B68BC
:100BB000DB6D01229A403B699A607B685B6D43F074
:100BC00002027B685A657B68DB6D04229A40FB68F1
:100BD0001340002B12D07B681B681B6803F00203D4
:100BE000002B0BD07B68DB6D04229A403B699A6036
:100BF0007B685B6D43F004027B685A657B68DB6D44
:100C000010229A40FB681340002B43D07B681B687E
:100C10001B6803F00803002B3CD07B68DB6D1022BF
:100C20009A403B699A607B681B681B6803F48023C9
:100C3000002B18D07B681B681B6803F40023002B73
:100C400008D17B681B6C002B24D07B681B6C7868F8
:100C500098471FE07B689B6C002B1BD07B689B6CCC
:100C60007868984716E07B681B681B6803F48073FC
:100C7000002B07D17B681B687A681268126822F023
:100C800008021A607B681B6C002B03D07B681B6C0E
:100C9000786898477B68DB6D20229A40FB68134098
:100CA000002B00F08E807B681B681B6803F010032C
:100CB000002B00F086807B68DB6D20229A403B6928
:100CC0009A607B6893F83530DBB2052B36D17B68B0
:100CD0001B687A681268126822F016021A607B6834
:100CE0001B687A681268526922F080025A617B6838
:100CF0001B6C002B03D17B689B6C002B07D07B689F
:100D00001B687A681268126822F008021A607B6811
:100D1000DB6D3F229A403B699A607B68002283F832
:100D200034207B68012283F835207B681B6D002B03
:100D30007DD07B681B6D7868984778E07B681B687E
:100D40001B6803F48023002B1CD07B681B681B6886
:100D500003F40023002B08D17B685B6C002B30D0A0
:100D60007B685B6C786898472BE07B68DB6B002BBB
:100D700027D07B68DB6B7868984722E02000002052
:100D8000B5814E1B7B681B681B6803F48073002BC6
:100D90000FD17B681B687A681268126822F0100213
:100DA0001A607B68002283F834207B68012283F874
:100DB00035207B68DB6B002B03D07B68DB6B7868AE
:100DC00098477B685B6D002B32D07B685B6D03F0CE
:100DD0000103002B22D07B68052283F835207B6835
:100DE0001B687A681268126822F001021A60BB68F8
:100DF0000133BB607A69934207D87B681B681B6824
:100E000003F00103002BF2D100E000BF7B68002259
:100E100083F834207B68012283F835207B68DB6C03
:100E2000002B05D07B68DB6C7868984700E000BF3A
:100E30001837BD4680BD00BF80B485B000AFF860F4
:100E4000B9607A603B60FB681B68FA6812681268D8
:100E500022F480221A60FB681B683A685A60FB68BB
:100E60009B68402B08D1FB681B687A689A60FB6816
:100E70001B68BA68DA6007E0FB681B68BA689A60AA
:100E8000FB681B687A68DA6000BF1437BD465DF8FE
:100E9000047B704780B485B000AF78607B681B68C6
:100EA000DBB2103B144AA2FB03231B09FB60134A6D
:100EB000FB6813441B781A467B68DA65FB68032BD2
:100EC00009D97B681B6823F47F7323F003031A1D81
:100ED0007B689A6507E07B681B6823F47F7323F0C7
:100EE00003037A6893657B689B6D18461437BD468B
:100EF0005DF8047B704700BFABAAAAAA184400089B
:100F000080B485B000AF78600023FB737B689B6A78
:100F1000BB607B689B69002B1FD1BB68032B55D836
:100F200001A252F823F000BF390F00084B0F000850
:100F3000390F0008CD0F00087B68DB6A03F080736F
:100F4000002B45D00123FB7342E07B68DB6AB3F1E1
:100F5000C07F3FD10123FB733CE07B689B69B3F505
:100F6000005F21D1BB68032B36D801A252F823F0D1
:100F7000810F0008870F0008810F0008990F0008F3
:100F80000123FB732FE07B68DB6A03F08073002B87
:100F900024D00123FB7321E07B68DB6AB3F1C07FBF
:100FA0001ED10123FB731BE0BB68022B02D9032B6C
:100FB00003D018E00123FB7315E07B68DB6A03F0C4
:100FC0008073002B0ED00123FB730BE000BF0AE0FF
:100FD00000BF08E000BF06E000BF04E000BF02E081
:100FE00000BF00E000BFFB7B18461437BD465DF82C
:100FF000047B704780B489B000AF7860396000230B
:101000007B6100233B610023BB610023FB616BE13B
:101010000122FB6902FA03F37B613B681A687B6972
:1010200013403B613A697B699A4240F05A813B68C0
:101030005B68022B03D03B685B68122B23D1FB69F2
:10104000DA087B68083253F82230BB61FB6903F091
:1010500007039B000F2202FA03F3DB43BA69134034
:10106000BB613B681A69FB6903F007039B0002FA46
:1010700003F3BA691343BB61FB69DA087B68083282
:10108000B96943F822107B681B68BB61FB695B0090
:10109000032202FA03F3DB43BA691340BB613B68E6
:1010A0005B6803F00302FB695B0002FA03F3BA69B1
:1010B0001343BB617B68BA691A603B685B68012BAC
:1010C0000BD03B685B68022B07D03B685B68112B39
:1010D00003D03B685B68122B30D17B689B68BB6197
:1010E000FB695B00032202FA03F3DB43BA69134096
:1010F000BB613B68DA68FB695B0002FA03F3BA691B
:101100001343BB617B68BA699A607B685B68BB61AB
:101110000122FB6902FA03F3DB43BA691340BB61A6
:101120003B685B681B0903F00102FB6902FA03F3E9
:10113000BA691343BB617B68BA695A607B68DB6834
:10114000BB61FB695B00032202FA03F3DB43BA696C
:101150001340BB613B689A68FB695B0002FA03F3CA
:10116000BA691343BB617B68BA69DA603B685B6844
:1011700003F08053002B00F0B4800023FB605F4A33
:101180005E4B5B6C43F4804353645C4B5B6C03F4D9
:101190008043FB60FB685A4AFB699B08023352F8A4
:1011A0002330BB61FB6903F003039B000F2202FAAB
:1011B00003F3DB43BA691340BB617B68514A934236
:1011C0002BD07B68504A934225D07B684F4A93428C
:1011D0001FD07B684E4A934219D07B684D4A934298
:1011E00013D07B684C4A93420DD07B684B4A9342A4
:1011F00007D07B684A4A934201D107230EE00823B7
:101200000CE006230AE0052308E0042306E003239C
:1012100004E0022302E0012300E00023FA6902F067
:10122000030292009340BA691343BB613449FB69DE
:101230009B080233BA6941F823203A4B1B68BB6113
:101240003B69DB43BA691340BB613B685B6803F4ED
:101250008033002B03D0BA693B691343BB61314A29
:10126000BB6913602F4B5B68BB613B69DB43BA69A9
:101270001340BB613B685B6803F40033002B03D071
:10128000BA693B691343BB61264ABB695360254B6E
:101290009B68BB613B69DB43BA691340BB613B6838
:1012A0005B6803F48013002B03D0BA693B691343D6
:1012B000BB611C4ABB6993601A4BDB68BB613B692D
:1012C000DB43BA691340BB613B685B6803F40013FE
:1012D000002B03D0BA693B691343BB61114ABB6958
:1012E000D360FB690133FB61FB690F2B7FF690AE86
:1012F00000BF2437BD465DF8047B704700380240CC
:101300000038014000000240000402400008024092
:10131000000C02400010024000140240001802407D
:10132000001C0240003C014080B586B000AF7860F0
:101330007B68002B01D101232DE27B681B6803F041
:101340000103002B75D0A34B9B6803F00C03042B07
:101350000CD0A04B9B6803F00C03082B12D19D4BC3
:101360005B6803F48003B3F5800F0BD1994B1B68C6
:1013700003F40033002B5BD07B685B68002B57D1F4
:10138000012308E27B685B68B3F5803F06D1914A90
:10139000904B1B6843F4803313601DE07B685B68EF
:1013A000B3F5A02F0CD18B4A8A4B1B6843F48023E2
:1013B0001360884A874B1B6843F4803313600BE04B
:1013C000844A844B1B6823F480331360814A814B29
:1013D0001B6823F4802313607B685B68002B13D0A9
:1013E000FFF7E4F8386108E0FFF7E0F802463B69F0
:1013F000D31A642B01D90323CDE1764B1B6803F488
:101400000033002BF0D014E0FFF7D0F8386108E08B
:10141000FFF7CCF802463B69D31A642B01D90323AA
:10142000B9E16C4B1B6803F40033002BF0D100E0F2
:1014300000BF7B681B6803F00203002B63D0654B81
:101440009B6803F00C03002B0BD0624B9B6803F0EE
:101450000C03082B1CD15F4B5B6803F48003002B4B
:1014600016D15C4B1B6803F00203002B05D07B6890
:10147000DB68012B01D001238DE15649554B1B68D8
:1014800023F0F8027B681B69DB0013430B603AE032
:101490007B68DB68002B20D04F4B01221A60FFF7DE
:1014A00085F8386108E0FFF781F802463B69D31AF6
:1014B000022B01D903236EE1464B1B6803F00203A4
:1014C000002BF0D04349434B1B6823F0F8027B68A4
:1014D0001B69DB0013430B6015E03F4B00221A60D1
:1014E000FFF764F8386108E0FFF760F802463B69EF
:1014F000D31A022B01D903234DE1364B1B6803F0AD
:101500000203002BF0D17B681B6803F00803002B5B
:1015100030D07B685B69002B16D0304B01221A60FB
:10152000FFF744F8386108E0FFF740F802463B69EE
:10153000D31A022B01D903232DE1264B5B6F03F055
:101540000203002BF0D015E0244B00221A60FFF7B5
:101550002DF8386108E0FFF729F802463B69D31AF5
:10156000022B01D9032316E11A4B5B6F03F0020330
:10157000002BF0D17B681B6803F00403002B00F004
:10158000A0800023FB75134B1B6C03F08053002BD2
:101590000FD10023FB600F4A0E4B1B6C43F08053AE
:1015A00013640C4B1B6C03F08053FB60FB6801233E
:1015B000FB750B4B1B6803F48073002B21D1084A89
:1015C000074B1B6843F480731360FEF7EFFF38612D
:1015D00011E000BF0038024000004742800E474241
:1015E00000700040FEF7E2FF02463B69D31A022B6F
:1015F00001D90323CFE06A4B1B6803F48073002BEF
:10160000F0D07B689B68012B06D1664A654B1B6F47
:1016100043F0010313671CE07B689B68052B0CD12A
:10162000604A604B1B6F43F0040313675D4A5D4BD8
:101630001B6F43F0010313670BE05A4A594B1B6FB2
:1016400023F001031367574A564B1B6F23F0040323
:1016500013677B689B68002B15D0FEF7A7FF3861E6
:101660000AE0FEF7A3FF02463B69D31A41F2883233
:10167000934201D903238EE04A4B1B6F03F0020310
:10168000002BEED014E0FEF791FF38610AE0FEF780
:101690008DFF02463B69D31A41F28832934201D949
:1016A000032378E03F4B1B6F03F00203002BEED1C6
:1016B000FB7D012B05D13B4A3A4B1B6C23F0805339
:1016C00013647B689B69002B64D0364B9B6803F0E6
:1016D0000C03082B5CD07B689B69022B41D1324BF9
:1016E00000221A60FEF762FF386108E0FEF75EFF35
:1016F00002463B69D31A022B01D903234BE0294B45
:101700001B6803F00073002BF0D126497B68DA696F
:101710007B681B6A1A437B685B6A9B011A437B6880
:101720009B6A5B08013B1B041A437B68DB6A1B0650
:1017300013434B601C4B01221A60FEF737FF3861E0
:1017400008E0FEF733FF02463B69D31A022B01D9AA
:10175000032320E0134B1B6803F00073002BF0D031
:1017600018E0114B00221A60FEF720FF386108E0F4
:10177000FEF71CFF02463B69D31A022B01D9032353
:1017800009E0084B1B6803F00073002BF0D101E067
:10179000012300E0002318461837BD4680BD00BF76
:1017A00000700040003802406000474280B584B0BD
:1017B00000AF786039607B68002B01D10123CAE05B
:1017C000674B1B6803F00F023B689A420CD2644BD4
:1017D0003A68D2B21A70624B1B6803F00F023B6882
:1017E0009A4201D00123B6E07B681B6803F0020334
:1017F000002B20D07B681B6803F00403002B05D06E
:10180000584A584B9B6843F4E05393607B681B68CD
:1018100003F00803002B05D0524A524B9B6843F457
:10182000604393604F494F4B9B6823F0F0027B6805
:101830009B6813438B607B681B6803F00103002BDC
:1018400044D07B685B68012B07D1464B1B6803F4CF
:101850000033002B19D101237DE07B685B68022BEC
:1018600003D07B685B68032B07D13E4B1B6803F0FA
:101870000073002B09D101236DE03A4B1B6803F084
:101880000203002B01D1012365E03649354B9B68EB
:1018900023F003027B685B6813438B60FEF786FED0
:1018A000F8600AE0FEF782FE0246FB68D31A41F2B6
:1018B0008832934201D903234DE02A4B9B6803F001
:1018C0000C027B685B689B009A42EBD1244B1B683F
:1018D00003F00F023B689A420CD9214B3A68D2B20E
:1018E0001A701F4B1B6803F00F023B689A4201D02D
:1018F000012330E07B681B6803F00403002B08D051
:101900001849184B9B6823F4E0527B68DB6813434B
:101910008B607B681B6803F00803002B09D011491A
:10192000104B9B6823F460427B681B69DB00134308
:101930008B6000F01DF801460A4B9B681B0903F001
:101940000F03094AD35C21FA03F3084A13600F20FE
:10195000FEF7E8FD002318461037BD4680BD00BFE6
:10196000003C0240003802402044000820000020D3
:101970002DE9F04F87B000AF0022FA6000227A61B3
:101980000022BA6000223A61514A926802F00C02C9
:10199000042A07D0082A08D0002A40F090804D4B36
:1019A0003B618FE04C4B3B618CE0494A526802F04E
:1019B0003F02FA60464A526802F48002002A23D0AD
:1019C000434B5B689B094FF0000440F2FF114FF05E
:1019D000000203EA010304EA02043F4A02FB04F1A5
:1019E000002202FB03F20A443B49A3FB0101531806
:1019F0001946FB684FF000041A462346FEF7E8FB41
:101A000003460C467B614CE0314A5268920911460C
:101A10004FF0000240F2FF154FF0000605EA010505
:101A200006EA0206294632464FEA421B4BEAD16BD0
:101A30004FEA411A51465A46AA46B34655465E46B3
:101A40004D1B62EB060629463246940144EA916436
:101A50008B015B1A64EB02044FEAC40949EA53792B
:101A60004FEAC30843464C4655465E46ED1846EBE2
:101A700004062B463446A2027A607A6842EA935200
:101A80007A609B023B6097E8180018462146FB6885
:101A90004FF000041A462346FEF79AFB03460C4615
:101AA0007B610B4B5B681B0C03F0030301335B0092
:101AB000BB607A69BB68B2FBF3F33B6102E0054BA4
:101AC0003B6100BF3B6918461C37BD46BDE8F08F3F
:101AD000003802400024F40040787D0180B400AF5B
:101AE000034B1B681846BD465DF8047B704700BF7A
:101AF0002000002080B500AFFFF7F0FF0146054B46
:101B00009B689B0A03F00703034AD35C21FA03F3A3
:101B1000184680BD003802403044000880B500AF50
:101B2000FFF7DCFF0146054B9B685B0B03F00703E7
:101B3000034AD35C21FA03F3184680BD0038024003
:101B40003044000880B582B000AF78607B68002B1D
:101B500001D101233FE07B6893F83930DBB2002BE1
:101B600006D17B68002283F83820786802F02EFBCB
:101B70007B68242283F839207B681B687A681268A6
:101B8000D26822F40052DA60786800F08FFC7B683B
:101B90001B687A681268126922F490421A617B68A5
:101BA0001B687A681268526922F02A025A617B68BF
:101BB0001B687A681268D26842F40052DA607B6867
:101BC0000022DA637B68202283F839207B68202298
:101BD00083F83A20002318460837BD4680BD000030
:101BE00080B586B000AFF860B9601346FB80FB6833
:101BF00093F83930DBB2202B53D1BB68002B02D0D5
:101C0000FB88002B01D101234CE0FB6893F83830AE
:101C1000012B01D1022345E0FB68012283F8382023
:101C2000BA68FB681A62FB68FA889A84FB68FA88CB
:101C3000DA84FB680022DA63FB68212283F839200A
:101C4000FB681B6B194ADA63FB681B6B184A1A6442
:101C5000FB681B6B174ADA64FB681B6B00221A6572
:101C600007F108037B61FB68186B7B691968FB68E7
:101C70001B6804331A46FB88FEF762FEFB681B688C
:101C80006FF040021A60FB68002283F83820FB687E
:101C90001B68FA681268526942F080025A61002398
:101CA00000E0022318461837BD4680BDB920000861
:101CB0000B210008AB21000880B586B000AFF860AA
:101CC000B9601346FB80FB6893F83A30DBB2202BF7
:101CD00066D1BB68002B02D0FB88002B01D1012309
:101CE0005FE0FB6893F83830012B01D1022358E004
:101CF000FB68012283F83820BA68FB689A62FB68A7
:101D0000FA889A85FB680022DA63FB68222283F84E
:101D10003A20FB685B6B254ADA63FB685B6B244AFD
:101D20001A64FB685B6B234ADA64FB685B6B002216
:101D30001A6507F108037B61FB68586BFB681B6839
:101D4000043319467B691A68FB88FEF7F9FD002306
:101D50003B61FB681B681B683B61FB681B685B6839
:101D60003B613B69FB68002283F83820FB681B68F5
:101D7000FA681268D26842F48072DA60FB681B6805
:101D8000FA681268526942F001025A61FB681B68E6
:101D9000FA681268526942F040025A61002300E07A
:101DA000022318461837BD4680BD00BF2721000812
:101DB0008F210008AB21000880B584B000AF7860A7
:101DC0000023FB607B681B685B6903F08003802B4A
:101DD0000CBF01230023DBB2FB607B6893F8393032
:101DE000DBB2212B16D1FB68002B13D07B681B685C
:101DF0007A681268526922F080025A617B681B6B14
:101E0000002B04D07B681B6B1846FEF7F9FD786841
:101E100000F015FA7B681B685B6903F04003402BF8
:101E20000CBF01230023DBB2FB607B6893F83A30E0
:101E3000DBB2222B16D1FB68002B13D07B681B680A
:101E40007A681268526922F040025A617B685B6BC3
:101E5000002B04D07B685B6B1846FEF7D1FD7868D9
:101E600000F003FA002318461037BD4680BD00007D
:101E700080B588B000AF78607B681B681B68FB6129
:101E80007B681B68DB68BB617B681B685B697B6187
:101E900000233B610023FB60FB6903F00F033B6100
:101EA0003B69002B0DD1FB6903F02003002B08D008
:101EB000BB6903F02003002B03D0786800F074FAAC
:101EC000CCE03B69002B00F0AB807B6903F00103A1
:101ED000002B05D1BB6903F49073002B00F0A080A8
:101EE000FB6903F00103002B0AD0BB6903F4807384
:101EF000002B05D07B68DB6B43F001027B68DA6363
:101F0000FB6903F00403002B0AD07B6903F0010393
:101F1000002B05D07B68DB6B43F002027B68DA6341
:101F2000FB6903F00203002B0AD07B6903F0010375
:101F3000002B05D07B68DB6B43F004027B68DA631F
:101F4000FB6903F00803002B0AD07B6903F001034F
:101F5000002B05D07B68DB6B43F008027B68DA63FB
:101F60007B68DB6B002B78D0FB6903F02003002B30
:101F700007D0BB6903F02003002B02D0786800F083
:101F800013FA7B681B685B6903F04003402B0CBFAE
:101F900001230023DBB2FB607B68DB6B03F00803EB
:101FA000002B02D1FB68002B31D0786800F05DF97E
:101FB0007B681B685B6903F04003402B23D17B687F
:101FC0001B687A681268526922F040025A617B6885
:101FD0005B6B002B13D07B685B6B224A1A657B68B6
:101FE0005B6B1846FEF77CFD0346002B16D07B6822
:101FF0005B6B1B6D7A68526B104698470EE07868F1
:1020000000F050F80AE0786800F04CF806E07868D4
:1020100000F048F87B680022DA631EE000BF1CE095
:10202000FB6903F08003002B08D0BB6903F0800339
:10203000002B03D0786800F04AF90FE0FB6903F049
:102040004003002B0AD0BB6903F04003002B05D0EE
:10205000786800F091F900BF00E000BF2037BD466E
:1020600080BD00BFA722000880B483B000AF7860B5
:1020700000BF0C37BD465DF8047B704780B483B069
:1020800000AF786000BF0C37BD465DF8047B704739
:1020900080B483B000AF786000BF0C37BD465DF8F8
:1020A000047B704780B483B000AF786000BF0C370A
:1020B000BD465DF8047B704780B584B000AF7860A2
:1020C0007B689B6BFB607B681B681B6803F48073F9
:1020D000002B13D1FB680022DA84FB681B68FA68C6
:1020E0001268526922F080025A61FB681B68FA6824
:1020F0001268D26842F04002DA6002E0F868FFF746
:10210000B3FF00BF1037BD4680BD80B584B000AFBF
:1021100078607B689B6BFB60F868FFF7AFFF00BFE0
:102120001037BD4680BD80B584B000AF78607B6855
:102130009B6BFB607B681B681B6803F48073002B40
:102140001ED1FB680022DA85FB681B68FA681268FA
:10215000D26822F48072DA60FB681B68FA68126841
:10216000526922F001025A61FB681B68FA68126822
:10217000526922F040025A61FB68202283F83A201B
:10218000F86801F081FF00BF1037BD4680BD80B503
:1021900084B000AF78607B689B6BFB60F868FFF7EA
:1021A00077FF00BF1037BD4680BD80B584B000AF5B
:1021B00078600023FB607B689B6BBB60BB681B681F
:1021C0005B6903F08003802B0CBF01230023DBB28B
:1021D000FB60BB6893F83930DBB2212B08D1FB6878
:1021E000002B05D0BB680022DA84B86800F027F81D
:1021F000BB681B685B6903F04003402B0CBF0123E5
:102200000023DBB2FB60BB6893F83A30DBB2222BD1
:1022100008D1FB68002B05D0BB680022DA85B868BE
:1022200000F023F8BB68DB6B43F01002BB68DA6395
:10223000B868FFF737FF00BF1037BD4680BD80B4D8
:1022400083B000AF78607B681B687A681268D268D8
:1022500022F0C002DA607B68202283F8392000BFB8
:102260000C37BD465DF8047B704780B483B000AF87
:1022700078607B681B687A681268D26822F4907272
:10228000DA607B681B687A681268526922F0010282
:102290005A617B68202283F83A2000BF0C37BD4684
:1022A0005DF8047B704780B584B000AF78607B68D0
:1022B0009B6BFB60FB680022DA85FB680022DA84F6
:1022C000F868FFF7EFFE00BF1037BD4680BD80B451
:1022D00085B000AF78607B6893F83930DBB2212B92
:1022E00043D17B689B68B3F5805F19D17B681B6A1B
:1022F000FB607B681B68FA681288C2F308025A60A8
:102300007B681B69002B05D17B681B6A9A1C7B6864
:102310001A620EE07B681B6A5A1C7B681A6208E02E
:102320007B681A687B681B6A581C796808621B788E
:1023300053607B68DB8C9BB2013B9BB27A68194689
:10234000D184002B0FD17B681B687A681268D26831
:1023500022F08002DA607B681B687A681268D268B3
:1023600042F04002DA60002300E0022318461437EE
:10237000BD465DF8047B704780B582B000AF7860E1
:102380007B681B687A681268D26822F04002DA60C3
:102390007B68202283F839207868FFF765FE0023E8
:1023A00018460837BD4680BD80B584B000AF786060
:1023B0007B6893F83A30DBB2222B71D17B689B6843
:1023C000B3F5805F23D17B689B6AFB607B681B69E8
:1023D000002B0ED17B681B685B689BB2C3F30803BC
:1023E0009AB2FB681A807B689B6A9A1C7B689A6227
:1023F00029E07B681B685B689BB2DBB29AB2FB6822
:102400001A807B689B6A5A1C7B689A621BE07B6817
:102410001B69002B0AD17B689B6A591C7A68916200
:102420007A6812685268D2B21A700CE07B689B6AB4
:10243000591C7A6891627A6812685268D2B202F0C6
:102440007F02D2B21A707B68DB8D9BB2013B9BB2DC
:102450007A681946D185002B20D17B681B687A6881
:102460001268D26822F02002DA607B681B687A6802
:102470001268D26822F48072DA607B681B687A681E
:102480001268526922F001025A617B68202283F8A7
:102490003A20786801F0F8FD002302E0002300E014
:1024A000022318461037BD4680BD0000F0B585B048
:1024B00000AF78607B681B687A681268126922F442
:1024C00040517A68D2680A431A617B689A687B68CF
:1024D0001B691A437B685B691A437B68DB6913439A
:1024E000FB607B681A687B681B68DB6823F4164313
:1024F00023F00C03F9680B43D3607B681B687A6890
:102500001268526922F440717A6892690A435A61EA
:102510007B68DB69B3F5004F40F0E4807B681B68A3
:10252000AB4A934204D07B681B68AA4A93426CD1A1
:102530007B681C68FFF7F2FA024613469B001344BF
:102540009A001A447B685B685B00B2FBF3F3A24A13
:10255000A2FB03235B091D01FFF7E0FA02461346C5
:102560009B0013449A001A447B685B685B00B2FBD3
:10257000F3F6FFF7D3FA024613469B0013449A0082
:102580001A447B685B685B00B2FBF3F3924AA2FBE0
:1025900003235B09642202FB03F3F31ADB003233EB
:1025A0008D4AA2FB03235B095B0003F4F8731D440F
:1025B000FFF7B4FA024613469B0013449A001A44EC
:1025C0007B685B685B00B2FBF3F6FFF7A7FA024695
:1025D00013469B0013449A001A447B685B685B00B7
:1025E000B2FBF3F37C4AA2FB03235B09642202FBE8
:1025F00003F3F31ADB003233774AA2FB03235B09B0
:1026000003F007032B44A36054E17B681C68FFF7C9
:1026100071FA024613469B0013449A001A447B68E1
:102620005B685B00B2FBF3F36B4AA2FB03235B091D
:102630001D01FFF75FFA024613469B0013449A0000
:102640001A447B685B685B00B2FBF3F6FFF752FA53
:10265000024613469B0013449A001A447B685B6849
:102660005B00B2FBF3F35C4AA2FB03235B09642229
:1026700002FB03F3F31ADB003233574AA2FB0323B6
:102680005B095B0003F4F8731D44FFF733FA02465D
:1026900013469B0013449A001A447B685B685B00F6
:1026A000B2FBF3F6FFF726FA024613469B001344EB
:1026B0009A001A447B685B685B00B2FBF3F3464AFE
:1026C000A2FB03235B09642202FB03F3F31ADB0082
:1026D0003233414AA2FB03235B0903F007032B4477
:1026E000A360E7E07B681B68394A934204D07B68AB
:1026F0001B68384A934271D17B681C68FFF70EFA59
:10270000024613469B0013449A001A447B685B6898
:102710009B00B2FBF3F3304AA2FB03235B091D01CC
:10272000FFF7FCF9024613469B0013449A001A4433
:102730007B685B689B00B2FBF3F6FFF7EFF902469C
:1027400013469B0013449A001A447B685B689B0005
:10275000B2FBF3F3204AA2FB03235B09642202FBD2
:1027600003F3F31A1B0132331B4AA2FB03235B0959
:1027700003F0F0031D44FFF7D1F9024613469B0016
:1027800013449A001A447B685B689B00B2FBF3F623
:10279000FFF7C4F9024613469B0013449A001A44FB
:1027A0007B685B689B00B2FBF3F30B4AA2FB03233D
:1027B0005B09642202FB03F3F31A1B013233064A5E
:1027C000A2FB03235B0903F00F032B44A36071E01A
:1027D00000100140001401401F85EB517B681C680C
:1027E000FFF788F9024613469B0013449A001A44E7
:1027F0007B685B689B00B2FBF3F3304AA2FB0323C8
:102800005B091D01FFF776F9024613469B0013444E
:102810009A001A447B685B689B00B2FBF3F6FFF7F3
:1028200069F9024613469B0013449A001A447B68D8
:102830005B689B00B2FBF3F3204AA2FB03235B0916
:10284000642202FB03F3F31A1B0132331B4AA2FB7F
:1028500003235B0903F0F0031D44FFF74BF9024625
:1028600013469B0013449A001A447B685B689B00E4
:10287000B2FBF3F6FFF73EF9024613469B00134402
:102880009A001A447B685B689B00B2FBF3F30B4A27
:10289000A2FB03235B09642202FB03F3F31A1B016F
:1028A0003233064AA2FB03235B0903F00F032B44D8
:1028B000A360FFE700BF1437BD46F0BD1F85EB5195
:1028C00080B485B000AF0346FB800023FB60B7F9FE
:1028D0000630842B05D0B7F90620FB681344033378
:1028E000FB60FB6818461437BD465DF8047B7047F3
:1028F00080B500AF00F032FE0023184680BDF0B571
:1029000087B002AF786039607B685C687B681D685F
:102910007B681B699EB27B68B3F908301846FFF7E5
:10292000CFFF024607F10C03019300923B68324649
:102930002946204600F0B4FC0346012B01D00023B9
:1029400000E0FB6818461437BD46F0BD80B584B082
:1029500000AF78607B68FB60FB68002B01D0FB68F0
:1029600000E00123184600F0C5FD0023184610378B
:10297000BD4680BD80B500AF01F0B0F80346012B25
:1029800001D000F069FA00BF80BD80B483B000AF11
:1029900078607B6803F108027B685A607B684FF0BF
:1029A000FF329A607B6803F108027B68DA607B681B
:1029B00003F108027B681A617B6800221A6000BF7D
:1029C0000C37BD465DF8047B704780B483B000AF20
:1029D00078607B6800221A6100BF0C37BD465DF845
:1029E000047B704780B485B000AF786039607B6845
:1029F0005B68FB603B68FA685A60FB689A683B68F2
:102A00009A60FB689B683A685A60FB683A689A600B
:102A10003B687A681A617B681B685A1C7B681A607D
:102A200000BF1437BD465DF8047B704780B485B0A5
:102A300000AF786039603B681B68BB60BB68B3F16E
:102A4000FF3F03D17B681B69FB600CE07B680833A8
:102A5000FB6002E0FB685B68FB60FB685B681A6810
:102A6000BB689A42F6D9FB685A683B685A603B6873
:102A70005B683A689A603B68FA689A60FB683A68F3
:102A80005A603B687A681A617B681B685A1C7B68CD
:102A90001A6000BF1437BD465DF8047B704780B4F0
:102AA00085B000AF78607B681B69FB607B685B6802
:102AB0007A6892689A607B689B687A6852685A6004
:102AC000FB685A687B689A4203D17B689A68FB6806
:102AD0005A607B6800221A61FB681B685A1EFB68FB
:102AE0001A60FB681B6818461437BD465DF8047B06
:102AF0007047000080B485B000AFF860B9607A60BC
:102B0000FB68043BFB60FB684FF080721A60FB6857
:102B1000043BFB60BB6823F00102FB681A60FB68A2
:102B2000043BFB600C4AFB681A60FB68143BFB60CB
:102B30007A68FB681A60FB68043BFB60FB686FF017
:102B400002021A60FB68203BFB60FB6818461437E2
:102B5000BD465DF8047B70475D2B000880B485B0EE
:102B600000AF00237B60114B1B68B3F1FF3F09D01E
:102B70004FF0500383F31188BFF36F8FBFF34F8F74
:102B8000FB60FEE74FF0500383F31188BFF36F8FB4
:102B9000BFF34F8FBB6000BF7B68002BFCD000BF32
:102BA0001437BD465DF8047B704700BF0800002065
:102BB000074B19680868B0E8F04F80F30988BFF345
:102BC0006F8F4FF0000080F311887047AFF30080E3
:102BD0006C3C002000BF00BF08480068006880F31C
:102BE00008884FF0000080F3148862B661B6BFF326
:102BF0004F8FBFF36F8F00DF00BF00BF08ED00E015
:102C000080B586B000AF444B1B68444A934209D15B
:102C10004FF0500383F31188BFF36F8FBFF34F8FD3
:102C20003B61FEE73C4B1B683D4A934209D14FF0A4
:102C3000500383F31188BFF36F8FBFF34F8FFB6097
:102C4000FEE7384B7B617B691B78DBB27B607B697D
:102C5000FF221A707B691B78DBB2FB70FB78DBB25A
:102C600003F05003DAB2304B1A70304B07221A606F
:102C700009E02E4B1B68013B2C4A1360FB78DBB24A
:102C80005B00DBB2FB70FB78DBB203F08003802BD0
:102C9000EFD0264B1B68C3F10703042B09D04FF07C
:102CA000500383F31188BFF36F8FBFF34F8FBB6067
:102CB000FEE71E4B1B681B021C4A13601B4B1B6864
:102CC00003F4E063194A13607B68DAB27B691A7017
:102CD000174A174B1B6843F470031360144A144BD4
:102CE0001B6843F07043136000F0D6F8114B0022CC
:102CF0001A6000F0F5F8104A0F4B1B6843F0404390
:102D00001360FFF769FF00F0D5FDFFF727FF0023F1
:102D100018461837BD4680BD00ED00E071C20F4176
:102D200070C20F4100E400E04C0000205000002081
:102D300020ED00E00800002034EF00E080B483B014
:102D400000AF4FF0500383F31188BFF36F8FBFF3D1
:102D50004F8F7B600E4B1B6801330D4A13600C4B89
:102D60001B68012B0ED10B4B1B68DBB2002B09D06B
:102D70004FF0500383F31188BFF36F8FBFF34F8F72
:102D80003B60FEE700BF0C37BD465DF8047B704733
:102D90000800002004ED00E080B483B000AF114BC8
:102DA0001B68002B09D14FF0500383F31188BFF348
:102DB0006F8FBFF34F8F7B60FEE70A4B1B68013BB1
:102DC000084A1360074B1B68002B04D100233B60AB
:102DD0003B6883F3118800BF0C37BD465DF8047B68
:102DE000704700BF08000020000000000000000045
:102DF000EFF30980BFF36F8F154B1A681EF0100FA9
:102E000008BF20ED108A20E9F04F10602DE909007D
:102E10004FF0500080F31188BFF34F8FBFF36F8FD7
:102E200000F048FD4FF0000080F3118809BC1968DC
:102E30000868B0E8F04F1EF0100F08BFB0EC108A21
:102E400080F30988BFF36F8F704700BFAFF3008036
:102E50006C3C002000BF00BF80B582B000AF4FF0D7
:102E6000500383F31188BFF36F8FBFF34F8F7B60E5
:102E700000F064FC0346002B03D0064B4FF0805259
:102E80001A6000233B603B6883F3118800BF08375A
:102E9000BD4680BD04ED00E080B400AF0B4B0022C6
:102EA0001A600B4B00221A600A4A0B4B1B680B4935
:102EB000A1FB03139B09013B1360044B07221A601B
:102EC00000BFBD465DF8047B704700BF10E000E026
:102ED00018E000E014E000E020000020D34D621074
:102EE000DFF80C00016841F470010160704700BF19
:102EF00088ED00E080B58AB000AF78600023FB6108
:102F000000F072FB574B1B68002B01D100F00CF94D
:102F1000554B1A687B681340002B40F08C807B680F
:102F2000002B1CD008227B6813447B607B6803F075
:102F30000703002B13D07B6823F0070308337B6063
:102F40007B6803F00703002B09D04FF0500383F395
:102F50001188BFF36F8FBFF34F8F7B61FEE77B68F4
:102F6000002B68D0414B1B687A689A4263D8404B6B
:102F70003B623F4B1B687B6204E07B6A3B627B6A7F
:102F80001B687B627B6A5A687B689A4203D27B6AC1
:102F90001B68002BF1D1334B1B687A6A9A424AD0E6
:102FA0003B6A1B6808221344FB617B6A1A683B6A10
:102FB0001A607B6A5A687B68D21A08235B009A42BF
:102FC0001ED97A6A7B681344BB61BB6903F00703AF
:102FD000002B09D04FF0500383F31188BFF36F8F9C
:102FE000BFF34F8F3B61FEE77B6A5A687B68D21A5A
:102FF000BB695A607B6A7A685A60B86900F0F6F873
:103000001A4B1A687B6A5B68D31A184A1360174B0D
:103010001A68184B1B689A4203D2144B1B68154A56
:1030200013607B6A5A68104B1B681A437B6A5A60AC
:103030007B6A00221A6000F0E5FAFB6903F00703DF
:10304000002B09D04FF0500383F31188BFF36F8F2B
:10305000BFF34F8FFB60FEE7FB6918462837BD467C
:1030600080BD00BF5C3C0020683C0020603C00202C
:10307000543C0020643C002080B586B000AF7860EE
:103080007B687B617B68002B46D008235B427A69B2
:1030900013447B617B693B613B695A68204B1B6829
:1030A0001340002B09D14FF0500383F31188BFF375
:1030B0006F8FBFF34F8FFB60FEE73B691B68002BF0
:1030C00009D04FF0500383F31188BFF36F8FBFF324
:1030D0004F8FBB60FEE73B695A68114B1B6813407A
:1030E000002B19D03B691B68002B15D13B695A682E
:1030F0000B4B1B68DB431A403B695A6000F074FAC3
:103100003B695A68074B1B681344064A13603869C9
:1031100000F06CF800F076FA00BF1837BD4680BDAD
:10312000683C0020603C002080B485B000AF4FF4C4
:103130007053BB60274BFB60FB6803F00703002B59
:103140000CD0FB680733FB60FB6823F00703FB60D0
:10315000BA68FB68D31A1F4A1344BB60FB687B60E4
:103160001D4A7B6813601C4B00225A607A68BB685A
:103170001344FB600822FB689B1AFB60FB6823F08A
:103180000703FB60FB68154A1360144B1B680022A1
:103190005A60124B1B6800221A607B683B603B68D8
:1031A000FA68D21A3B685A600C4B1A683B681A607E
:1031B0003B685B680A4A13603B685B68094A1360B6
:1031C000094B4FF000421A6000BF1437BD465DF84E
:1031D000047B704754000020543C00205C3C0020DD
:1031E000643C0020603C0020683C002080B485B036
:1031F00000AF7860284BFB6002E0FB681B68FB6057
:10320000FB681A687B689A42F7D3FB68BB60FB686F
:103210005B68BA681A447B689A4208D1FB685A68AE
:103220007B685B681A44FB685A60FB687B607B685C
:10323000BB607B685B68BA681A44FB681B689A428B
:1032400018D1FB681A68154B1B689A420DD07B6831
:103250005A68FB681B685B681A447B685A60FB68A5
:103260001B681A687B681A6008E00C4B1A687B6858
:103270001A6003E0FB681A687B681A60FA687B686A
:103280009A4202D0FB687A681A6000BF1437BD46C4
:103290005DF8047B704700BF543C00205C3C00207C
:1032A00080B58CB004AFF860B9603B601346FB801A
:1032B000FB889B001846FFF71DFE78617B69002B99
:1032C0000ED05420FFF716FEF861FB69002B03D0E7
:1032D000FB697A691A6305E07869FFF7CDFE01E0C2
:1032E0000023FB61FB69002B13D0FA8800230393B2
:1032F000FB690293FB6A0193BB6A00933B68B96860
:10330000F86800F00EF8F86900F08AF80123BB6154
:1033100002E04FF0FF33BB61BB6918462037BD4662
:1033200080BD80B588B000AFF860B9607A603B605E
:103330003B6B1A6B7B6803F18043013B9B0013449A
:10334000BB61BB6923F00703BB61BB6903F00703E3
:10335000002B09D04FF0500383F31188BFF36F8F18
:10336000BFF34F8F7B61FEE70023FB6112E0BA6879
:10337000FB69134419783A6BFB69134434330A46EA
:103380001A70BA68FB6913441B78002B06D0FB69DE
:103390000133FB61FB690F2BE9D900E000BF3B6BF8
:1033A000002283F84320BB6A062B01D90623BB62A7
:1033B0003B6BBA6ADA623B6BBA6A5A643B6B0022B7
:1033C0009A643B6B04331846FFF7FFFA3B6B1833E4
:1033D0001846FFF7FAFA3B6B3A6B1A61BB6AC3F106
:1033E00007023B6B9A613B6B3A6B5A623B6B002264
:1033F000DA643B6B002283F850203A68F968B869B8
:10340000FFF778FB02463B6B1A60FB6A002B02D089
:10341000FB6A3A6B1A6000BF2037BD4680BD0000D2
:1034200080B582B000AF7860FFF788FC2A4B1B683C
:103430000133294A1360294B1B68002B09D1274A05
:103440007B681360244B1B68012B10D100F0A4FA99
:103450000DE0234B1B68002B09D1204B1B68DA6A57
:103460007B68DB6A9A4202D81C4A7B6813601D4B5A
:103470001B6801331B4A13607B68DB6A01229A4098
:10348000194B1B681343184A13607B68DA6A1346AA
:103490009B0013449B00154A1A447B680433194669
:1034A0001046FFF79FFAFFF777FC0D4B1B68002BC8
:1034B0000ED00A4B1B68DA6A7B68DB6A9A4207D235
:1034C0000B4B4FF080521A60BFF34F8FBFF36F8FDB
:1034D00000BF0837BD4680BD6C3D00206C3C00201D
:1034E000783D0020883D0020743D0020703C002085
:1034F00004ED00E080B584B000AF78600023FB608D
:103500007B68002B16D0134B1B68002B09D04FF0A3
:10351000500383F31188BFF36F8FBFF34F8FBB60EE
:10352000FEE700F061F80021786800F0F5FA00F09D
:1035300069F8F860FB68002B07D1074B4FF0805209
:103540001A60BFF34F8FBFF36F8F00BF1037BD46B8
:1035500080BD00BF943D002004ED00E080B586B042
:1035600002AF1B4B019300230093002380221949D3
:103570001948FFF795FEF860FB68012B15D14FF055
:10358000500383F31188BFF36F8FBFF34F8FBB607E
:10359000124B4FF0FF321A60114B01221A60114B8F
:1035A00000221A60FFF72CFB0DE0FB68B3F1FF3F30
:1035B00009D14FF0500383F31188BFF36F8FBFF32E
:1035C0004F8F7B60FEE700BF1037BD4680BD00BF58
:1035D000903D0020F0430008693900088C3D002030
:1035E000783D0020703D002080B400AF044B1B6884
:1035F0000133034A136000BFBD465DF8047B70478A
:10360000943D002080B584B000AF0023FB60002310
:10361000BB60414B1B68002B09D14FF0500383F373
:103620001188BFF36F8FBFF34F8F3B60FEE7FFF74B
:1036300085FB394B1B68013B374A1360364B1B68CF
:10364000002B61D1354B1B68002B5DD02EE0344B35
:10365000DB68DB68FB60FB6818331846FFF71FFA6E
:10366000FB6804331846FFF71AFAFB68DB6A01228D
:103670009A402C4B1B6813432A4A1360FB68DA6A92
:1036800013469B0013449B00274A1A44FB680433EB
:1036900019461046FFF7A6F9FB68DA6A234B1B6848
:1036A000DB6A9A4202D3224B01221A601C4B1B6830
:1036B000002BCCD1FB68002B01D000F0E9F91D4BA9
:1036C0001B687B607B68002B10D000F037F8034646
:1036D000002B02D0164B01221A607B68013B7B60F5
:1036E0007B68002BF1D1134B00221A60104B1B6832
:1036F000002B09D00123BB600F4B4FF080521A60A2
:10370000BFF34F8FBFF36F8FFFF746FBBB681846C1
:103710001037BD4680BD00BF943D00206C3D0020A9
:103720002C3D0020743D0020703C00206C3C0020AB
:10373000803D00207C3D002004ED00E080B586B097
:1037400000AF00237B61504B1B68002B40F08C8046
:103750004E4B1B6801333B614C4A3B6913603B692C
:10376000002B1FD14A4B1B681B68002B09D04FF060
:10377000500383F31188BFF36F8FBFF34F8F3B600C
:10378000FEE7434B1B68FB60424B1B68404A1360DB
:10379000404AFB681360404B1B6801333E4A13608C
:1037A00000F076F93D4B1B683A699A424DD3384B8D
:1037B0001B681B68002B01D1012300E00023002BB4
:1037C00004D0364B4FF0FF321A603EE0304B1B689E
:1037D000DB68DB68BB60BB685B687B603A697B6801
:1037E0009A4203D22D4A7B6813602EE0BB680433F3
:1037F0001846FFF754F9BB689B6A002B04D0BB68DE
:1038000018331846FFF74BF9BB68DB6A01229A4070
:10381000234B1B681343224A1360BB68DA6A1346C2
:103820009B0013449B001F4A1A44BB68043319468B
:103830001046FFF7D7F8BB68DA6A1B4B1B68DB6AD8
:103840009A42B4D301237B61B1E7174B1B68DA6A54
:10385000144913469B0013449B000B441B68012B27
:1038600007D901237B6104E0104B1B6801330F4A29
:1038700013600F4B1B68002B01D001237B617B6918
:1038800018461837BD4680BD943D0020703D00208D
:10389000243D0020283D0020843D00208C3D002058
:1038A000743D0020703C00206C3C00207C3D0020DA
:1038B000803D002080B487B000AF264B1B68002BF2
:1038C00003D0254B01221A603EE0234B00221A60F0
:1038D000224B1B68FB60FB68B3FA83F3FB72FB7A35
:1038E000C3F11F037B611E497A6913469B00134491
:1038F0009B000B441B68002B09D14FF0500383F34E
:103900001188BFF36F8FBFF34F8F7B60FEE77A693B
:1039100013469B0013449B00114A13443B613B69CF
:103920005B685A683B695A603B695A683B6908336F
:103930009A4204D13B695B685A683B695A603B69AB
:103940005B68DB68074A136000BF1C37BD465DF843
:10395000047B7047943D0020803D0020743D002092
:10396000703C00206C3C002080B582B000AF7860D5
:1039700000F052F8064B1B68012BF9D9054B4FF0AC
:1039800080521A60BFF34F8FBFF36F8FF0E700BF15
:10399000703C002004ED00E080B582B000AF002351
:1039A0007B600CE07A6813469B0013449B00124A2C
:1039B00013441846FEF7E9FF7B6801337B607B68A0
:1039C000062BEFD90D48FEF7E0FF0D48FEF7DDFFAF
:1039D0000C48FEF7DAFF0C48FEF7D7FF0B48FEF75E
:1039E000D4FF0B4B054A1A600A4B054A1A6000BF08
:1039F0000837BD4680BD00BF703C0020FC3C002065
:103A0000103D00202C3D0020403D0020583D00206E
:103A1000243D0020283D002080B582B000AF19E091
:103A2000FFF78CF90F4BDB68DB687B607B68043346
:103A30001846FFF734F80C4B1B68013B0A4A136029
:103A40000A4B1B68013B094A1360FFF7A5F9786828
:103A500000F00EF8054B1B68002BE1D100BF0837C2
:103A6000BD4680BD403D00206C3D0020543D0020FF
:103A700080B582B000AF78607B681B6B1846FFF79B
:103A8000FBFA7868FFF7F8FA00BF0837BD4680BD3B
:103A900080B483B000AF0F4B1B681B68002B01D1B3
:103AA000012300E00023002B04D00B4B4FF0FF322A
:103AB0001A6008E0074B1B68DB68DB687B607B688B
:103AC0005B68054A136000BF0C37BD465DF8047B98
:103AD000704700BF243D00208C3D002080B483B09F
:103AE00000AF0B4B1B68002B02D101237B6008E069
:103AF000084B1B68002B02D102237B6001E00023EE
:103B00007B607B6818460C37BD465DF8047B7047C8
:103B1000783D0020943D002080B584B000AF7860EF
:103B20003960294B1B68FB60284B1B68043318461F
:103B3000FEF7B5FF0346002B0BD1244B1B68DB6A55
:103B4000012202FA03F3DA43214B1B681340204A97
:103B500013607B68B3F1FF3F0AD13B68002B07D0AD
:103B60001A4B1B68043319461A48FEF73BFF26E040
:103B7000FA687B681344BB60144B1B68BA685A60D0
:103B8000BA68FB689A4209D2134B1A680F4B1B683C
:103B9000043319461046FEF749FF10E00F4B1A6830
:103BA0000A4B1B68043319461046FEF73FFF0C4BC7
:103BB0001B68BA689A4202D2094ABB68136000BF08
:103BC0001037BD4680BD00BF703D00206C3C00201A
:103BD000743D0020583D0020283D0020243D002059
:103BE0008C3D002080B582B000AF00237B60104A7E
:103BF0000F4B1B6B43F4800313630D4B1B6B03F4E0
:103C000080037B607B68002205213A20FCF7B3FD2E
:103C10003A20FCF7CCFD002205214620FCF7ABFD45
:103C20004620FCF7C4FD00BF0837BD4680BD00BF7D
:103C300000380240B0B586B000AF094B3C1D1D46B0
:103C40000FCD0FC42B6823603B1D00211846FEF7E3
:103C500056FE0246034B1A6000BF1837BD46B0BD82
:103C6000044400089C3D002080B582B000AF78601D
:103C700000F06CFA142204490448FDF7B1FF0A2051
:103C8000FEF764FEF6E700BF0C000020F43E0020C3
:103C900080B483B000AF00237B60094A084B1B6BE4
:103CA00043F001031363064B1B6B03F001037B60BE
:103CB0007B6800BF0C37BD465DF8047B704700BFD2
:103CC0000038024080B500AFFCF70AFC00F00CF8A9
:103CD000FFF7DEFFFFF786FF00F04EFAFFF7AAFFBF
:103CE000FEF706FEFEE7000080B594B000AF07F1D6
:103CF000200330220021184600F066FB07F10C0378
:103D000000221A605A609A60DA601A610023BB6070
:103D1000224A224B1B6C43F0805313641F4B1B6CD5
:103D200003F08053BB60BB6800237B601C4A1C4BC4
:103D30001B6843F480431360194B1B6803F48043F2
:103D40007B607B6802233B620123FB6210233B63A1
:103D50000023BB6307F120031846FDF7E5FA03468D
:103D6000002B01D000F01EF80F23FB6000233B6105
:103D700000237B610023BB610023FB6107F10C037F
:103D800000211846FDF712FD0346002B01D000F07C
:103D900009F800BF5037BD4680BD00BF0038024063
:103DA0000070004080B400AF00BFBD465DF8047BEA
:103DB0007047000080B582B000AF00237B60124ADC
:103DC000114B5B6C43F4804353640F4B5B6C03F407
:103DD00080437B607B6800233B600B4A0A4B1B6C73
:103DE00043F080531364084B1B6C03F080533B601B
:103DF0003B6800220F216FF00100FCF7BCFC00BF04
:103E00000837BD4680BD00BF0038024080B400AF17
:103E100000BFBD465DF8047B704780B400AFFEE78D
:103E200080B400AFFEE780B400AFFEE780B400AF1F
:103E3000FEE780B400AF00BFBD465DF8047B70476D
:103E400080B500AFFCF79EFBFEF794FD00BF80BD80
:103E500080B500AF0748FEF70BF8064B1B681B68E0
:103E600003F01003102B02D1024800F023F900BF29
:103E700080BD00BFF43E002080B500AF0248FCF7D3
:103E800051FE00BF80BD00BF943E002080B500AF52
:103E90000248FCF747FE00BF80BD00BF343E002053
:103EA00080B400AF164A164BD3F8883043F4700341
:103EB000C2F88830134A134B1B6843F001031360A8
:103EC000104B00229A600F4A0E4B1B6823F084733C
:103ED00023F4803313600B4B0B4A5A60094A094B99
:103EE0001B6823F480231360064B0022DA60044B26
:103EF0004FF000629A6000BFBD465DF8047B7047DA
:103F000000ED00E0003802401030002480B487B09B
:103F100000AFF860B9601346FB710023FB75FB68C6
:103F20001B7A012B40F0A280FB7DA6E0FB689B7909
:103F300003F00103DBB2002B25D1FB681A79FB7D6E
:103F4000591CF9751946BB680B441B789A4211D16C
:103F5000FB681A68FB68DB79591CC8B2F968C8713C
:103F60001344FA6812791A70FA68937943F00103DE
:103F7000937178E0FB680022DA71FA6893796FF345
:103F8000000393716FE0FB689B7903F00203DBB2DF
:103F9000002B2AD1FB685A79FB7D591CF97519460B
:103FA000BB680B441B789A4211D1FB681A68FB6806
:103FB000DB79591CC8B2F968C8711344FA685279A0
:103FC0001A70FA68937943F0020393714BE0FB682F
:103FD0000022DA71FA6893796FF300039371FA683B
:103FE00093796FF3410393713DE0FB68DB79022B1A
:103FF00017D1FB7D5A1CFA751A46BB6813441B780F
:104000000333DAB2FB685A72FB681A68FB68DB7923
:10401000591CC8B2F968C8711344FA68527A1A7008
:1040200021E0FB681A68FB68DB79591CC8B2F968A3
:10403000C8711A44FB7D591CF9751946BB680B44BD
:104040001B781370FB68DA79FB685B7A9A420AD9AD
:10405000FB680022DA71FB6800229A71FB6801227A
:104060001A72FB7D09E0FB6800221A72FB795A1E66
:10407000FA71002B7FF45AAFFB7D18461C37BD4602
:104080005DF8047B7047000080B582B000AF7860B7
:104090007B681B68054A934204D1802204497868F2
:1040A000FDF70AFE00BF0837BD4680BD0010014085
:1040B000B43D002080B584B000AF78600023FB6081
:1040C0007B681B681B6803F01003102B30D10023A2
:1040D000BB607B681B681B68BB607B681B685B6898
:1040E000BB60BB687B681B68134A934220D17B6826
:1040F0001B681B68FB607B681B685B68FB607868FB
:10410000FDF75AFE0D4B1B685B68DAB26FF07F0358
:104110009B1ADAB20A4B1A70094B1B781A460949E6
:104120000948FFF7F3FE802206497868FDF7C4FDD1
:1041300000BF1037BD4680BD00100140943E0020F6
:10414000B03D0020B43D00202400002080B500AF29
:10415000074B1B68064A1268D26842F01002DA6008
:10416000802204490248FDF7A7FD00BF80BD00BFC3
:10417000F43E0020B43D002080B500AF114B124A40
:104180001A60104B4FF4E1325A600E4B00229A60D5
:104190000C4B0022DA600B4B00221A61094B0C22F7
:1041A0005A61084B00229A61064B0022DA610548E9
:1041B000FDF7C8FC0346002B01D0FFF7F3FD00BF5D
:1041C00080BD00BFF43E00200010014080B58AB0E1
:1041D00000AF786007F1140300221A605A609A60F9
:1041E000DA601A617B681B68494A934240F08C8010
:1041F00000233B61474A474B5B6C43F01003536419
:10420000444B5B6C03F010033B613B690023FB6094
:10421000404A404B1B6B43F0010313633D4B1B6B48
:1042200003F00103FB60FB684FF4C0637B61022372
:10423000BB610123FB6103233B6207237B6207F120
:10424000140319463448FCF7D5FE344B344A1A603F
:10425000324B4FF000625A60304B00229A602F4B75
:104260000022DA602D4B4FF480621A612B4B002242
:104270005A612A4B00229A61284B0022DA61274BAF
:1042800000221A62254B00225A622448FCF7AAFA3F
:104290000346002B01D0FFF785FD7B681F4A5A6358
:1042A0001E4A7B6893631F4B1F4A1A601D4B4FF0D9
:1042B00000625A601B4B40229A601A4B0022DA605F
:1042C000184B4FF480621A61164B00225A61154B4D
:1042D00000229A61134B0022DA61124B00221A620B
:1042E000104B00225A620F48FCF77CFA7B680D4A9B
:1042F0001A630C4A7B689363002205212520FCF792
:104300003AFA2520FCF753FA00BF2837BD4680BD96
:10431000001001400038024000000240943E00209E
:1043200040640240343E0020B8640240DFF834D0DC
:10433000002103E00C4B5B58435004310B480C4BFD
:1043400042189A42F6D30B4A02E0002342F8043B9B
:10435000094B9A42F9D3FFF7A3FD00F011F8FFF7DC
:10436000B1FC704700000220484400080000002013
:104370003000002030000020343F0020FEE7000025
:1043800070B50D4E0D4CA41BA4100025A54209D1FB
:104390000B4E0C4C00F020F8A41BA4100025A542E5
:1043A00005D170BD56F8253098470135EEE756F82F
:1043B000253098470135F2E74044000840440008A2
:1043C000404400084444000802440346934200D19C
:1043D000704703F8011BF9E7F8B500BFF8BC08BC4B
:1043E0009E467047F8B500BFF8BC08BC9E467047B3
:1043F00049444C450000000064656661756C745466
:1044000061736B00F8430008693C0008000000007D
:1044100000000000800000000006101600061016C4
:104420000000000000000000010203040607080964
:0844300000000000010203047A
:08443800C8BDFF7F0100000078
:04444000B5010008BA
:0444440091010008DA
:104448001000000001000000AAAAAAAA00010203A5
:104458000405060708090A0B0C0D0E0F101112139C
:104468000024F400A03D00205AA500000000000030
:040000050800432D7F
:00000001FF
